{
  "contractName": "Feedback",
  "abi": [
    {
      "inputs": [
        {
          "internalType": "string",
          "name": "ipfs",
          "type": "string"
        },
        {
          "internalType": "string[]",
          "name": "regNo",
          "type": "string[]"
        },
        {
          "internalType": "string[]",
          "name": "phone",
          "type": "string[]"
        },
        {
          "internalType": "string[]",
          "name": "email",
          "type": "string[]"
        },
        {
          "internalType": "uint256[5]",
          "name": "Times",
          "type": "uint256[5]"
        },
        {
          "internalType": "uint256",
          "name": "NoOfQuestions",
          "type": "uint256"
        }
      ],
      "stateMutability": "nonpayable",
      "type": "constructor"
    },
    {
      "inputs": [
        {
          "internalType": "uint256",
          "name": "",
          "type": "uint256"
        }
      ],
      "name": "Email",
      "outputs": [
        {
          "internalType": "string",
          "name": "",
          "type": "string"
        }
      ],
      "stateMutability": "view",
      "type": "function",
      "constant": true
    },
    {
      "inputs": [],
      "name": "Ipfs",
      "outputs": [
        {
          "internalType": "string",
          "name": "",
          "type": "string"
        }
      ],
      "stateMutability": "view",
      "type": "function",
      "constant": true
    },
    {
      "inputs": [
        {
          "internalType": "uint256",
          "name": "",
          "type": "uint256"
        }
      ],
      "name": "Phone",
      "outputs": [
        {
          "internalType": "string",
          "name": "",
          "type": "string"
        }
      ],
      "stateMutability": "view",
      "type": "function",
      "constant": true
    },
    {
      "inputs": [
        {
          "internalType": "uint256",
          "name": "",
          "type": "uint256"
        }
      ],
      "name": "RegNo",
      "outputs": [
        {
          "internalType": "string",
          "name": "",
          "type": "string"
        }
      ],
      "stateMutability": "view",
      "type": "function",
      "constant": true
    },
    {
      "inputs": [
        {
          "internalType": "uint256",
          "name": "",
          "type": "uint256"
        }
      ],
      "name": "RegisterDone",
      "outputs": [
        {
          "internalType": "bool",
          "name": "",
          "type": "bool"
        }
      ],
      "stateMutability": "view",
      "type": "function",
      "constant": true
    },
    {
      "inputs": [],
      "name": "StartFeedbackTime",
      "outputs": [
        {
          "internalType": "uint256",
          "name": "",
          "type": "uint256"
        }
      ],
      "stateMutability": "view",
      "type": "function",
      "constant": true
    },
    {
      "inputs": [],
      "name": "StartRegisterTime",
      "outputs": [
        {
          "internalType": "uint256",
          "name": "",
          "type": "uint256"
        }
      ],
      "stateMutability": "view",
      "type": "function",
      "constant": true
    },
    {
      "inputs": [],
      "name": "StartResultTime",
      "outputs": [
        {
          "internalType": "uint256",
          "name": "",
          "type": "uint256"
        }
      ],
      "stateMutability": "view",
      "type": "function",
      "constant": true
    },
    {
      "inputs": [],
      "name": "StopFeedbackTime",
      "outputs": [
        {
          "internalType": "uint256",
          "name": "",
          "type": "uint256"
        }
      ],
      "stateMutability": "view",
      "type": "function",
      "constant": true
    },
    {
      "inputs": [],
      "name": "StopRegisterTime",
      "outputs": [
        {
          "internalType": "uint256",
          "name": "",
          "type": "uint256"
        }
      ],
      "stateMutability": "view",
      "type": "function",
      "constant": true
    },
    {
      "inputs": [],
      "name": "candidatescount",
      "outputs": [
        {
          "internalType": "uint256",
          "name": "",
          "type": "uint256"
        }
      ],
      "stateMutability": "view",
      "type": "function",
      "constant": true
    },
    {
      "inputs": [],
      "name": "chairperson",
      "outputs": [
        {
          "internalType": "address",
          "name": "",
          "type": "address"
        }
      ],
      "stateMutability": "view",
      "type": "function",
      "constant": true
    },
    {
      "inputs": [
        {
          "internalType": "uint256",
          "name": "",
          "type": "uint256"
        }
      ],
      "name": "feedbacks",
      "outputs": [
        {
          "internalType": "uint256",
          "name": "qid",
          "type": "uint256"
        },
        {
          "internalType": "string",
          "name": "answer",
          "type": "string"
        }
      ],
      "stateMutability": "view",
      "type": "function",
      "constant": true
    },
    {
      "inputs": [],
      "name": "questionsCount",
      "outputs": [
        {
          "internalType": "uint256",
          "name": "",
          "type": "uint256"
        }
      ],
      "stateMutability": "view",
      "type": "function",
      "constant": true
    },
    {
      "inputs": [
        {
          "internalType": "address",
          "name": "",
          "type": "address"
        }
      ],
      "name": "users",
      "outputs": [
        {
          "internalType": "address",
          "name": "user_address",
          "type": "address"
        },
        {
          "internalType": "bool",
          "name": "registered",
          "type": "bool"
        }
      ],
      "stateMutability": "view",
      "type": "function",
      "constant": true
    },
    {
      "inputs": [
        {
          "internalType": "uint256",
          "name": "regIndx",
          "type": "uint256"
        }
      ],
      "name": "register",
      "outputs": [],
      "stateMutability": "nonpayable",
      "type": "function"
    },
    {
      "inputs": [
        {
          "internalType": "uint256",
          "name": "index",
          "type": "uint256"
        }
      ],
      "name": "getIsRegNoRegistered",
      "outputs": [
        {
          "internalType": "bool",
          "name": "",
          "type": "bool"
        }
      ],
      "stateMutability": "view",
      "type": "function",
      "constant": true
    },
    {
      "inputs": [],
      "name": "getLengthRegNo",
      "outputs": [
        {
          "internalType": "uint256",
          "name": "",
          "type": "uint256"
        }
      ],
      "stateMutability": "view",
      "type": "function",
      "constant": true
    },
    {
      "inputs": [],
      "name": "getLengthPhone",
      "outputs": [
        {
          "internalType": "uint256",
          "name": "",
          "type": "uint256"
        }
      ],
      "stateMutability": "view",
      "type": "function",
      "constant": true
    },
    {
      "inputs": [],
      "name": "getLengthEmail",
      "outputs": [
        {
          "internalType": "uint256",
          "name": "",
          "type": "uint256"
        }
      ],
      "stateMutability": "view",
      "type": "function",
      "constant": true
    },
    {
      "inputs": [
        {
          "internalType": "address",
          "name": "addr",
          "type": "address"
        }
      ],
      "name": "isRegistered",
      "outputs": [
        {
          "internalType": "bool",
          "name": "",
          "type": "bool"
        }
      ],
      "stateMutability": "view",
      "type": "function",
      "constant": true
    },
    {
      "inputs": [
        {
          "internalType": "string[]",
          "name": "Answers",
          "type": "string[]"
        }
      ],
      "name": "giveFeedback",
      "outputs": [],
      "stateMutability": "nonpayable",
      "type": "function"
    },
    {
      "inputs": [
        {
          "internalType": "uint256",
          "name": "_qid",
          "type": "uint256"
        }
      ],
      "name": "getAnswersForQid",
      "outputs": [
        {
          "internalType": "string[]",
          "name": "",
          "type": "string[]"
        }
      ],
      "stateMutability": "view",
      "type": "function",
      "constant": true
    }
  ],
  "bytecode": "0x60806040523480156200001157600080fd5b50604051620026573803806200265783398181016040528101906200003791906200078d565b336000806101000a81548173ffffffffffffffffffffffffffffffffffffffff021916908373ffffffffffffffffffffffffffffffffffffffff160217905550856001908162000088919062000ae8565b508460099080519060200190620000a192919062000265565b5083600a9080519060200190620000ba92919062000265565b5082600b9080519060200190620000d392919062000265565b5081600060058110620000eb57620000ea62000bcf565b5b6020020151600481905550816001600581106200010d576200010c62000bcf565b5b6020020151600581905550816002600581106200012f576200012e62000bcf565b5b60200201516006819055508160036005811062000151576200015062000bcf565b5b60200201516007819055508160046005811062000173576200017262000bcf565b5b60200201516008819055508060028190555060098054905067ffffffffffffffff811115620001a757620001a66200042e565b5b604051908082528060200260200182016040528015620001d65781602001602082028036833780820191505090505b50600e9080519060200190620001ee929190620002c5565b5060005b60098054905081101562000258576000600e828154811062000219576200021862000bcf565b5b90600052602060002090602091828204019190066101000a81548160ff02191690831515021790555080806200024f9062000c2d565b915050620001f2565b5050505050505062000c7a565b828054828255906000526020600020908101928215620002b2579160200282015b82811115620002b1578251829081620002a0919062000ae8565b509160200191906001019062000286565b5b509050620002c1919062000372565b5090565b82805482825590600052602060002090601f016020900481019282156200035f5791602002820160005b838211156200032e57835183826101000a81548160ff0219169083151502179055509260200192600101602081600001049283019260010302620002ef565b80156200035d5782816101000a81549060ff02191690556001016020816000010492830192600103026200032e565b505b5090506200036e91906200039a565b5090565b5b808211156200039657600081816200038c9190620003b9565b5060010162000373565b5090565b5b80821115620003b55760008160009055506001016200039b565b5090565b508054620003c790620008e1565b6000825580601f10620003db5750620003fc565b601f016020900490600052602060002090810190620003fb91906200039a565b5b50565b6000604051905090565b600080fd5b600080fd5b600080fd5b600080fd5b6000601f19601f8301169050919050565b7f4e487b7100000000000000000000000000000000000000000000000000000000600052604160045260246000fd5b62000468826200041d565b810181811067ffffffffffffffff821117156200048a57620004896200042e565b5b80604052505050565b60006200049f620003ff565b9050620004ad82826200045d565b919050565b600067ffffffffffffffff821115620004d057620004cf6200042e565b5b620004db826200041d565b9050602081019050919050565b60005b8381101562000508578082015181840152602081019050620004eb565b60008484015250505050565b60006200052b6200052584620004b2565b62000493565b9050828152602081018484840111156200054a576200054962000418565b5b62000557848285620004e8565b509392505050565b600082601f83011262000577576200057662000413565b5b81516200058984826020860162000514565b91505092915050565b600067ffffffffffffffff821115620005b057620005af6200042e565b5b602082029050602081019050919050565b600080fd5b6000620005dd620005d78462000592565b62000493565b90508083825260208201905060208402830185811115620006035762000602620005c1565b5b835b818110156200065157805167ffffffffffffffff8111156200062c576200062b62000413565b5b8086016200063b89826200055f565b8552602085019450505060208101905062000605565b5050509392505050565b600082601f83011262000673576200067262000413565b5b815162000685848260208601620005c6565b91505092915050565b600067ffffffffffffffff821115620006ac57620006ab6200042e565b5b602082029050919050565b6000819050919050565b620006cc81620006b7565b8114620006d857600080fd5b50565b600081519050620006ec81620006c1565b92915050565b60006200070962000703846200068e565b62000493565b90508060208402830185811115620007265762000725620005c1565b5b835b818110156200075357806200073e8882620006db565b84526020840193505060208101905062000728565b5050509392505050565b600082601f83011262000775576200077462000413565b5b600562000784848285620006f2565b91505092915050565b6000806000806000806101408789031215620007ae57620007ad62000409565b5b600087015167ffffffffffffffff811115620007cf57620007ce6200040e565b5b620007dd89828a016200055f565b965050602087015167ffffffffffffffff8111156200080157620008006200040e565b5b6200080f89828a016200065b565b955050604087015167ffffffffffffffff8111156200083357620008326200040e565b5b6200084189828a016200065b565b945050606087015167ffffffffffffffff8111156200086557620008646200040e565b5b6200087389828a016200065b565b93505060806200088689828a016200075d565b9250506101206200089a89828a01620006db565b9150509295509295509295565b600081519050919050565b7f4e487b7100000000000000000000000000000000000000000000000000000000600052602260045260246000fd5b60006002820490506001821680620008fa57607f821691505b60208210810362000910576200090f620008b2565b5b50919050565b60008190508160005260206000209050919050565b60006020601f8301049050919050565b600082821b905092915050565b6000600883026200097a7fffffffffffffffffffffffffffffffffffffffffffffffffffffffffffffffff826200093b565b6200098686836200093b565b95508019841693508086168417925050509392505050565b6000819050919050565b6000620009c9620009c3620009bd84620006b7565b6200099e565b620006b7565b9050919050565b6000819050919050565b620009e583620009a8565b620009fd620009f482620009d0565b84845462000948565b825550505050565b600090565b62000a1462000a05565b62000a21818484620009da565b505050565b5b8181101562000a495762000a3d60008262000a0a565b60018101905062000a27565b5050565b601f82111562000a985762000a628162000916565b62000a6d846200092b565b8101602085101562000a7d578190505b62000a9562000a8c856200092b565b83018262000a26565b50505b505050565b600082821c905092915050565b600062000abd6000198460080262000a9d565b1980831691505092915050565b600062000ad8838362000aaa565b9150826002028217905092915050565b62000af382620008a7565b67ffffffffffffffff81111562000b0f5762000b0e6200042e565b5b62000b1b8254620008e1565b62000b2882828562000a4d565b600060209050601f83116001811462000b60576000841562000b4b578287015190505b62000b57858262000aca565b86555062000bc7565b601f19841662000b708662000916565b60005b8281101562000b9a5784890151825560018201915060208501945060208101905062000b73565b8683101562000bba578489015162000bb6601f89168262000aaa565b8355505b6001600288020188555050505b505050505050565b7f4e487b7100000000000000000000000000000000000000000000000000000000600052603260045260246000fd5b7f4e487b7100000000000000000000000000000000000000000000000000000000600052601160045260246000fd5b600062000c3a82620006b7565b91507fffffffffffffffffffffffffffffffffffffffffffffffffffffffffffffffff820362000c6f5762000c6e62000bfe565b5b600182019050919050565b6119cd8062000c8a6000396000f3fe608060405234801561001057600080fd5b506004361061014d5760003560e01c80639fa12468116100c3578063c3c5a5471161007c578063c3c5a547146103bc578063c65993b1146103ec578063d594cbeb1461041c578063d6b1f5d91461043a578063f207564e1461046a578063fe3a4bd2146104865761014d565b80639fa12468146102e5578063a6193aba14610303578063a87430ba14610321578063ae7bec2b14610352578063b49b89cc1461036e578063ba72e7251461039e5761014d565b806335e038c71161011557806335e038c7146101fb57806336584c77146102195780635e6cb241146102375780636fcdc508146102675780637c1fb3c314610297578063881f4e44146102b55761014d565b80631f7eb4d514610152578063240f5838146101705780632bb8b0dc1461018e5780632e4176cf146101bf578063329f5c41146101dd575b600080fd5b61015a6104a4565b6040516101679190610f36565b60405180910390f35b610178610532565b6040516101859190610f71565b60405180910390f35b6101a860048036038101906101a39190610fcc565b610538565b6040516101b6929190610ff9565b60405180910390f35b6101c76105f4565b6040516101d4919061106a565b60405180910390f35b6101e5610618565b6040516101f29190610f71565b60405180910390f35b61020361061e565b6040516102109190610f71565b60405180910390f35b61022161062b565b60405161022e9190610f71565b60405180910390f35b610251600480360381019061024c9190610fcc565b610631565b60405161025e9190610f36565b60405180910390f35b610281600480360381019061027c9190610fcc565b6106dd565b60405161028e91906110a0565b60405180910390f35b61029f61071a565b6040516102ac9190610f71565b60405180910390f35b6102cf60048036038101906102ca9190610fcc565b610720565b6040516102dc91906111c7565b60405180910390f35b6102ed6108b2565b6040516102fa9190610f71565b60405180910390f35b61030b6108b8565b6040516103189190610f71565b60405180910390f35b61033b60048036038101906103369190611215565b6108be565b604051610349929190611242565b60405180910390f35b61036c60048036038101906103679190611486565b61090f565b005b61038860048036038101906103839190610fcc565b610a59565b60405161039591906110a0565b60405180910390f35b6103a6610a8d565b6040516103b39190610f71565b60405180910390f35b6103d660048036038101906103d19190611215565b610a9a565b6040516103e391906110a0565b60405180910390f35b61040660048036038101906104019190610fcc565b610af3565b6040516104139190610f36565b60405180910390f35b610424610b9f565b6040516104319190610f71565b60405180910390f35b610454600480360381019061044f9190610fcc565b610bac565b6040516104619190610f36565b60405180910390f35b610484600480360381019061047f9190610fcc565b610c58565b005b61048e610ea0565b60405161049b9190610f71565b60405180910390f35b600180546104b1906114fe565b80601f01602080910402602001604051908101604052809291908181526020018280546104dd906114fe565b801561052a5780601f106104ff5761010080835404028352916020019161052a565b820191906000526020600020905b81548152906001019060200180831161050d57829003601f168201915b505050505081565b60065481565b600d818154811061054857600080fd5b9060005260206000209060020201600091509050806000015490806001018054610571906114fe565b80601f016020809104026020016040519081016040528092919081815260200182805461059d906114fe565b80156105ea5780601f106105bf576101008083540402835291602001916105ea565b820191906000526020600020905b8154815290600101906020018083116105cd57829003601f168201915b5050505050905082565b60008054906101000a900473ffffffffffffffffffffffffffffffffffffffff1681565b60085481565b6000600b80549050905090565b60075481565b6009818154811061064157600080fd5b90600052602060002001600091509050805461065c906114fe565b80601f0160208091040260200160405190810160405280929190818152602001828054610688906114fe565b80156106d55780601f106106aa576101008083540402835291602001916106d5565b820191906000526020600020905b8154815290600101906020018083116106b857829003601f168201915b505050505081565b6000600e82815481106106f3576106f261152f565b5b90600052602060002090602091828204019190069054906101000a900460ff169050919050565b60025481565b60606000600d8054905067ffffffffffffffff81111561074357610742611270565b5b60405190808252806020026020018201604052801561077657816020015b60608152602001906001900390816107615790505b5090506000805b600d805490508110156108a45784600d828154811061079f5761079e61152f565b5b9060005260206000209060020201600001540361089157600d81815481106107ca576107c961152f565b5b906000526020600020906002020160010180546107e6906114fe565b80601f0160208091040260200160405190810160405280929190818152602001828054610812906114fe565b801561085f5780601f106108345761010080835404028352916020019161085f565b820191906000526020600020905b81548152906001019060200180831161084257829003601f168201915b50505050508383815181106108775761087661152f565b5b6020026020010181905250818061088d9061158d565b9250505b808061089c9061158d565b91505061077d565b508082528192505050919050565b60055481565b60045481565b600c6020528060005260406000206000915090508060000160009054906101000a900473ffffffffffffffffffffffffffffffffffffffff16908060000160149054906101000a900460ff16905082565b600033905060011515600c60008373ffffffffffffffffffffffffffffffffffffffff1673ffffffffffffffffffffffffffffffffffffffff16815260200190815260200160002060000160149054906101000a900460ff161515146109aa576040517f08c379a00000000000000000000000000000000000000000000000000000000081526004016109a190611621565b60405180910390fd5b6002548251146109b957600080fd5b60005b8251811015610a5457600d60405180604001604052808381526020018584815181106109eb576109ea61152f565b5b60200260200101518152509080600181540180825580915050600190039060005260206000209060020201600090919091909150600082015181600001556020820151816001019081610a3e91906117ed565b5050508080610a4c9061158d565b9150506109bc565b505050565b600e8181548110610a6957600080fd5b9060005260206000209060209182820401919006915054906101000a900460ff1681565b6000600980549050905090565b6000600c60008373ffffffffffffffffffffffffffffffffffffffff1673ffffffffffffffffffffffffffffffffffffffff16815260200190815260200160002060000160149054906101000a900460ff169050919050565b600b8181548110610b0357600080fd5b906000526020600020016000915090508054610b1e906114fe565b80601f0160208091040260200160405190810160405280929190818152602001828054610b4a906114fe565b8015610b975780601f10610b6c57610100808354040283529160200191610b97565b820191906000526020600020905b815481529060010190602001808311610b7a57829003601f168201915b505050505081565b6000600a80549050905090565b600a8181548110610bbc57600080fd5b906000526020600020016000915090508054610bd7906114fe565b80601f0160208091040260200160405190810160405280929190818152602001828054610c03906114fe565b8015610c505780601f10610c2557610100808354040283529160200191610c50565b820191906000526020600020905b815481529060010190602001808311610c3357829003601f168201915b505050505081565b600033905060008054906101000a900473ffffffffffffffffffffffffffffffffffffffff1673ffffffffffffffffffffffffffffffffffffffff163373ffffffffffffffffffffffffffffffffffffffff1603610ceb576040517f08c379a0000000000000000000000000000000000000000000000000000000008152600401610ce29061190b565b60405180910390fd5b60001515600c60008373ffffffffffffffffffffffffffffffffffffffff1673ffffffffffffffffffffffffffffffffffffffff16815260200190815260200160002060000160149054906101000a900460ff16151514610d81576040517f08c379a0000000000000000000000000000000000000000000000000000000008152600401610d7890611977565b60405180910390fd5b80600c60008373ffffffffffffffffffffffffffffffffffffffff1673ffffffffffffffffffffffffffffffffffffffff16815260200190815260200160002060000160006101000a81548173ffffffffffffffffffffffffffffffffffffffff021916908373ffffffffffffffffffffffffffffffffffffffff1602179055506001600c60008373ffffffffffffffffffffffffffffffffffffffff1673ffffffffffffffffffffffffffffffffffffffff16815260200190815260200160002060000160146101000a81548160ff0219169083151502179055506001600e8381548110610e7357610e7261152f565b5b90600052602060002090602091828204019190066101000a81548160ff0219169083151502179055505050565b60035481565b600081519050919050565b600082825260208201905092915050565b60005b83811015610ee0578082015181840152602081019050610ec5565b60008484015250505050565b6000601f19601f8301169050919050565b6000610f0882610ea6565b610f128185610eb1565b9350610f22818560208601610ec2565b610f2b81610eec565b840191505092915050565b60006020820190508181036000830152610f508184610efd565b905092915050565b6000819050919050565b610f6b81610f58565b82525050565b6000602082019050610f866000830184610f62565b92915050565b6000604051905090565b600080fd5b600080fd5b610fa981610f58565b8114610fb457600080fd5b50565b600081359050610fc681610fa0565b92915050565b600060208284031215610fe257610fe1610f96565b5b6000610ff084828501610fb7565b91505092915050565b600060408201905061100e6000830185610f62565b81810360208301526110208184610efd565b90509392505050565b600073ffffffffffffffffffffffffffffffffffffffff82169050919050565b600061105482611029565b9050919050565b61106481611049565b82525050565b600060208201905061107f600083018461105b565b92915050565b60008115159050919050565b61109a81611085565b82525050565b60006020820190506110b56000830184611091565b92915050565b600081519050919050565b600082825260208201905092915050565b6000819050602082019050919050565b600082825260208201905092915050565b600061110382610ea6565b61110d81856110e7565b935061111d818560208601610ec2565b61112681610eec565b840191505092915050565b600061113d83836110f8565b905092915050565b6000602082019050919050565b600061115d826110bb565b61116781856110c6565b935083602082028501611179856110d7565b8060005b858110156111b557848403895281516111968582611131565b94506111a183611145565b925060208a0199505060018101905061117d565b50829750879550505050505092915050565b600060208201905081810360008301526111e18184611152565b905092915050565b6111f281611049565b81146111fd57600080fd5b50565b60008135905061120f816111e9565b92915050565b60006020828403121561122b5761122a610f96565b5b600061123984828501611200565b91505092915050565b6000604082019050611257600083018561105b565b6112646020830184611091565b9392505050565b600080fd5b7f4e487b7100000000000000000000000000000000000000000000000000000000600052604160045260246000fd5b6112a882610eec565b810181811067ffffffffffffffff821117156112c7576112c6611270565b5b80604052505050565b60006112da610f8c565b90506112e6828261129f565b919050565b600067ffffffffffffffff82111561130657611305611270565b5b602082029050602081019050919050565b600080fd5b600080fd5b600067ffffffffffffffff82111561133c5761133b611270565b5b61134582610eec565b9050602081019050919050565b82818337600083830152505050565b600061137461136f84611321565b6112d0565b9050828152602081018484840111156113905761138f61131c565b5b61139b848285611352565b509392505050565b600082601f8301126113b8576113b761126b565b5b81356113c8848260208601611361565b91505092915050565b60006113e46113df846112eb565b6112d0565b9050808382526020820190506020840283018581111561140757611406611317565b5b835b8181101561144e57803567ffffffffffffffff81111561142c5761142b61126b565b5b80860161143989826113a3565b85526020850194505050602081019050611409565b5050509392505050565b600082601f83011261146d5761146c61126b565b5b813561147d8482602086016113d1565b91505092915050565b60006020828403121561149c5761149b610f96565b5b600082013567ffffffffffffffff8111156114ba576114b9610f9b565b5b6114c684828501611458565b91505092915050565b7f4e487b7100000000000000000000000000000000000000000000000000000000600052602260045260246000fd5b6000600282049050600182168061151657607f821691505b602082108103611529576115286114cf565b5b50919050565b7f4e487b7100000000000000000000000000000000000000000000000000000000600052603260045260246000fd5b7f4e487b7100000000000000000000000000000000000000000000000000000000600052601160045260246000fd5b600061159882610f58565b91507fffffffffffffffffffffffffffffffffffffffffffffffffffffffffffffffff82036115ca576115c961155e565b5b600182019050919050565b7f55736572206973206e6f7420726567697374657265642e000000000000000000600082015250565b600061160b601783610eb1565b9150611616826115d5565b602082019050919050565b6000602082019050818103600083015261163a816115fe565b9050919050565b60008190508160005260206000209050919050565b60006020601f8301049050919050565b600082821b905092915050565b6000600883026116a37fffffffffffffffffffffffffffffffffffffffffffffffffffffffffffffffff82611666565b6116ad8683611666565b95508019841693508086168417925050509392505050565b6000819050919050565b60006116ea6116e56116e084610f58565b6116c5565b610f58565b9050919050565b6000819050919050565b611704836116cf565b611718611710826116f1565b848454611673565b825550505050565b600090565b61172d611720565b6117388184846116fb565b505050565b5b8181101561175c57611751600082611725565b60018101905061173e565b5050565b601f8211156117a15761177281611641565b61177b84611656565b8101602085101561178a578190505b61179e61179685611656565b83018261173d565b50505b505050565b600082821c905092915050565b60006117c4600019846008026117a6565b1980831691505092915050565b60006117dd83836117b3565b9150826002028217905092915050565b6117f682610ea6565b67ffffffffffffffff81111561180f5761180e611270565b5b61181982546114fe565b611824828285611760565b600060209050601f8311600181146118575760008415611845578287015190505b61184f85826117d1565b8655506118b7565b601f19841661186586611641565b60005b8281101561188d57848901518255600182019150602085019450602081019050611868565b868310156118aa57848901516118a6601f8916826117b3565b8355505b6001600288020188555050505b505050505050565b7f6368616972706572736f6e2063616e6e6f742072656769737465720000000000600082015250565b60006118f5601b83610eb1565b9150611900826118bf565b602082019050919050565b60006020820190508181036000830152611924816118e8565b9050919050565b7f7573657220697320616c72656164792072656769737465726564000000000000600082015250565b6000611961601a83610eb1565b915061196c8261192b565b602082019050919050565b6000602082019050818103600083015261199081611954565b905091905056fea2646970667358221220cf68cd87da4012a7619cc6a22cb183e00e0829a0470be8af74d3ec29c98c61c364736f6c63430008110033",
  "immutableReferences": {},
  "source": "\npragma solidity ^0.8.17;\n\n// SPDX-License-Identifier: GPL-3.0\n\ncontract Feedback {\n    address public chairperson;\n    string public Ipfs;\n    uint256 public questionsCount;\n    uint256 public candidatescount;\n    uint256 public StartRegisterTime;\n    uint256 public StopRegisterTime;\n    uint256 public StartFeedbackTime;\n    uint256 public StopFeedbackTime;\n    uint256 public StartResultTime;\n    string[] public RegNo;\n    string[] public Phone;\n    string[] public Email;\n   struct Feedbacks\n   {\n    uint qid;\n    string answer;\n   }\n       struct User\n    {\n        address user_address;\n        \n        bool registered;\n    }\n     mapping(address=>User) public users;\n   Feedbacks[] public feedbacks;\n   bool[] public RegisterDone;\n    \n    constructor(\n        string memory ipfs,\n        string[] memory regNo,\n        string[] memory phone,\n        string[] memory email,\n        uint256[5] memory Times,\n        uint256 NoOfQuestions\n    ) {\n        chairperson = msg.sender;\n        Ipfs = ipfs;\n        RegNo = regNo;\n        Phone = phone;\n        Email = email;\n        StartRegisterTime = Times[0];\n        StopRegisterTime = Times[1];\n        StartFeedbackTime = Times[2];\n        StopFeedbackTime = Times[3];\n        StartResultTime = Times[4];\n        questionsCount = NoOfQuestions;\n        RegisterDone = new bool[](RegNo.length);\n        for(uint i=0;i<RegNo.length;i++)\n        {\n            RegisterDone[i] = false;\n        }\n    }\n     function register(uint regIndx) public \n    {     \n          address person = msg.sender;\n          \n        require(msg.sender!=chairperson,\"chairperson cannot register\");\n        require(users[person].registered==false,\"user is already registered\");\n      \n        users[person].user_address = person;\n        users[person].registered = true;\n        RegisterDone[regIndx] = true;\n        \n\n    }\n    function getIsRegNoRegistered(uint index) public view returns(bool){\n        return RegisterDone[index];\n     }\n     function getLengthRegNo() public view returns(uint)\n     {\n        return RegNo.length;\n     }\n     function getLengthPhone() public view returns(uint)\n     {\n        return Phone.length;\n     }\n     function getLengthEmail() public view returns(uint)\n     {\n        return Email.length;\n     }\n     function isRegistered(address addr) public view returns(bool)\n     {\n        return(users[addr].registered);\n     }\n    function giveFeedback(string[] memory Answers) public {\n        address person = msg.sender;\n    require(users[person].registered == true, \"User is not registered.\");\n        require(Answers.length==questionsCount);\n        for(uint i=0;i<Answers.length;i++)\n        {\n            feedbacks.push(Feedbacks({\n                qid:i,\n                answer:Answers[i]\n        }));\n        }\n        \n       \n    }\n       // Function to retrieve all answers for a specific qid\n    function getAnswersForQid(uint _qid) public view returns (string[] memory) {\n        // Create a dynamic array to store answers for the given qid\n        string[] memory answersForQid = new string[](feedbacks.length);\n        uint count = 0;\n\n        // Loop through the feedbacks array\n        for (uint i = 0; i < feedbacks.length; i++) {\n            // Check if the qid matches\n            if (feedbacks[i].qid == _qid) {\n                // Add the answer to the dynamic array\n                answersForQid[count] = feedbacks[i].answer;\n                count++;\n            }\n        }\n\n        // Resize the array to remove unused space\n        assembly {\n            mstore(answersForQid, count)\n        }\n\n        return answersForQid;\n    }\n    \n}",
  "sourcePath": "/home/yatin/Documents/Fiducia/contracts/Feedback.sol",
  "compiler": {
    "name": "solc",
    "version": "0.8.17+commit.8df45f5f.Emscripten.clang"
  },
  "schemaVersion": "3.4.15",
  "updatedAt": "2024-05-11T10:56:05.294Z",
  "networkType": "ethereum",
  "devdoc": {
    "kind": "dev",
    "methods": {},
    "version": 1
  },
  "userdoc": {
    "kind": "user",
    "methods": {},
    "version": 1
  }
}