{
  "contractName": "Voting",
  "abi": [
    {
      "inputs": [],
      "stateMutability": "nonpayable",
      "type": "constructor"
    },
    {
      "inputs": [
        {
          "internalType": "uint256",
          "name": "",
          "type": "uint256"
        }
      ],
      "name": "Email",
      "outputs": [
        {
          "internalType": "string",
          "name": "",
          "type": "string"
        }
      ],
      "stateMutability": "view",
      "type": "function"
    },
    {
      "inputs": [
        {
          "internalType": "uint256",
          "name": "",
          "type": "uint256"
        }
      ],
      "name": "Phone",
      "outputs": [
        {
          "internalType": "string",
          "name": "",
          "type": "string"
        }
      ],
      "stateMutability": "view",
      "type": "function"
    },
    {
      "inputs": [
        {
          "internalType": "uint256",
          "name": "",
          "type": "uint256"
        }
      ],
      "name": "RegNo",
      "outputs": [
        {
          "internalType": "string",
          "name": "",
          "type": "string"
        }
      ],
      "stateMutability": "view",
      "type": "function"
    },
    {
      "inputs": [
        {
          "internalType": "uint256",
          "name": "",
          "type": "uint256"
        }
      ],
      "name": "RegisterDone",
      "outputs": [
        {
          "internalType": "bool",
          "name": "",
          "type": "bool"
        }
      ],
      "stateMutability": "view",
      "type": "function"
    },
    {
      "inputs": [],
      "name": "StartRegisterTime",
      "outputs": [
        {
          "internalType": "uint256",
          "name": "",
          "type": "uint256"
        }
      ],
      "stateMutability": "view",
      "type": "function"
    },
    {
      "inputs": [],
      "name": "StartResultTime",
      "outputs": [
        {
          "internalType": "uint256",
          "name": "",
          "type": "uint256"
        }
      ],
      "stateMutability": "view",
      "type": "function"
    },
    {
      "inputs": [],
      "name": "StartVotingTime",
      "outputs": [
        {
          "internalType": "uint256",
          "name": "",
          "type": "uint256"
        }
      ],
      "stateMutability": "view",
      "type": "function"
    },
    {
      "inputs": [],
      "name": "StopRegisterTime",
      "outputs": [
        {
          "internalType": "uint256",
          "name": "",
          "type": "uint256"
        }
      ],
      "stateMutability": "view",
      "type": "function"
    },
    {
      "inputs": [],
      "name": "StopVotingTime",
      "outputs": [
        {
          "internalType": "uint256",
          "name": "",
          "type": "uint256"
        }
      ],
      "stateMutability": "view",
      "type": "function"
    },
    {
      "inputs": [
        {
          "internalType": "uint256",
          "name": "",
          "type": "uint256"
        }
      ],
      "name": "candidates",
      "outputs": [
        {
          "internalType": "uint256",
          "name": "candidateNo",
          "type": "uint256"
        },
        {
          "internalType": "uint256",
          "name": "no_of_votes",
          "type": "uint256"
        },
        {
          "internalType": "string",
          "name": "candidateName",
          "type": "string"
        },
        {
          "internalType": "string",
          "name": "candidatedescription",
          "type": "string"
        }
      ],
      "stateMutability": "view",
      "type": "function"
    },
    {
      "inputs": [],
      "name": "candidatescount",
      "outputs": [
        {
          "internalType": "uint256",
          "name": "",
          "type": "uint256"
        }
      ],
      "stateMutability": "view",
      "type": "function"
    },
    {
      "inputs": [],
      "name": "chairperson",
      "outputs": [
        {
          "internalType": "address",
          "name": "",
          "type": "address"
        }
      ],
      "stateMutability": "view",
      "type": "function"
    },
    {
      "inputs": [
        {
          "internalType": "uint256",
          "name": "",
          "type": "uint256"
        }
      ],
      "name": "tiebreakers",
      "outputs": [
        {
          "internalType": "uint256",
          "name": "candidateNo",
          "type": "uint256"
        },
        {
          "internalType": "uint256",
          "name": "no_of_votes",
          "type": "uint256"
        },
        {
          "internalType": "string",
          "name": "candidateName",
          "type": "string"
        },
        {
          "internalType": "string",
          "name": "candidatedescription",
          "type": "string"
        }
      ],
      "stateMutability": "view",
      "type": "function"
    },
    {
      "inputs": [
        {
          "internalType": "address",
          "name": "",
          "type": "address"
        }
      ],
      "name": "voters",
      "outputs": [
        {
          "internalType": "bool",
          "name": "voted",
          "type": "bool"
        },
        {
          "internalType": "bool",
          "name": "registered",
          "type": "bool"
        },
        {
          "internalType": "address",
          "name": "delegate",
          "type": "address"
        },
        {
          "internalType": "uint256",
          "name": "vote",
          "type": "uint256"
        },
        {
          "internalType": "uint256",
          "name": "weight",
          "type": "uint256"
        }
      ],
      "stateMutability": "view",
      "type": "function"
    },
    {
      "inputs": [
        {
          "internalType": "string[]",
          "name": "regNo",
          "type": "string[]"
        },
        {
          "internalType": "string[]",
          "name": "phone",
          "type": "string[]"
        },
        {
          "internalType": "string[]",
          "name": "email",
          "type": "string[]"
        },
        {
          "internalType": "string[]",
          "name": "candidateNames",
          "type": "string[]"
        },
        {
          "internalType": "string[]",
          "name": "candidateDesc",
          "type": "string[]"
        },
        {
          "internalType": "uint256",
          "name": "NoOfCandidates",
          "type": "uint256"
        },
        {
          "internalType": "uint256",
          "name": "startregistertime",
          "type": "uint256"
        },
        {
          "internalType": "uint256",
          "name": "stopregistertime",
          "type": "uint256"
        },
        {
          "internalType": "uint256",
          "name": "startvotingtime",
          "type": "uint256"
        },
        {
          "internalType": "uint256",
          "name": "stopvotingtime",
          "type": "uint256"
        },
        {
          "internalType": "uint256",
          "name": "startresultstime",
          "type": "uint256"
        }
      ],
      "name": "set",
      "outputs": [],
      "stateMutability": "nonpayable",
      "type": "function"
    },
    {
      "inputs": [
        {
          "internalType": "uint256",
          "name": "index",
          "type": "uint256"
        }
      ],
      "name": "RegisterRegNo",
      "outputs": [],
      "stateMutability": "nonpayable",
      "type": "function"
    },
    {
      "inputs": [
        {
          "internalType": "uint256",
          "name": "index",
          "type": "uint256"
        }
      ],
      "name": "getIsRegNoRegistered",
      "outputs": [
        {
          "internalType": "bool",
          "name": "",
          "type": "bool"
        }
      ],
      "stateMutability": "view",
      "type": "function"
    },
    {
      "inputs": [],
      "name": "getLengthRegNo",
      "outputs": [
        {
          "internalType": "uint256",
          "name": "",
          "type": "uint256"
        }
      ],
      "stateMutability": "view",
      "type": "function"
    },
    {
      "inputs": [],
      "name": "getLengthPhone",
      "outputs": [
        {
          "internalType": "uint256",
          "name": "",
          "type": "uint256"
        }
      ],
      "stateMutability": "view",
      "type": "function"
    },
    {
      "inputs": [],
      "name": "getLengthEmail",
      "outputs": [
        {
          "internalType": "uint256",
          "name": "",
          "type": "uint256"
        }
      ],
      "stateMutability": "view",
      "type": "function"
    },
    {
      "inputs": [
        {
          "internalType": "address",
          "name": "addr",
          "type": "address"
        }
      ],
      "name": "isRegistered",
      "outputs": [
        {
          "internalType": "bool",
          "name": "",
          "type": "bool"
        }
      ],
      "stateMutability": "view",
      "type": "function"
    },
    {
      "inputs": [
        {
          "internalType": "address",
          "name": "addr",
          "type": "address"
        }
      ],
      "name": "isVoted",
      "outputs": [
        {
          "internalType": "bool",
          "name": "",
          "type": "bool"
        }
      ],
      "stateMutability": "view",
      "type": "function"
    },
    {
      "inputs": [],
      "name": "register",
      "outputs": [],
      "stateMutability": "nonpayable",
      "type": "function"
    },
    {
      "inputs": [
        {
          "internalType": "uint256",
          "name": "vo",
          "type": "uint256"
        }
      ],
      "name": "voting",
      "outputs": [],
      "stateMutability": "nonpayable",
      "type": "function"
    },
    {
      "inputs": [],
      "name": "results",
      "outputs": [],
      "stateMutability": "nonpayable",
      "type": "function"
    },
    {
      "inputs": [
        {
          "internalType": "uint256",
          "name": "num",
          "type": "uint256"
        }
      ],
      "name": "getNoOfVotes",
      "outputs": [
        {
          "internalType": "uint256",
          "name": "",
          "type": "uint256"
        }
      ],
      "stateMutability": "view",
      "type": "function"
    },
    {
      "inputs": [],
      "name": "getWinnersLength",
      "outputs": [
        {
          "internalType": "uint256",
          "name": "",
          "type": "uint256"
        }
      ],
      "stateMutability": "view",
      "type": "function"
    },
    {
      "inputs": [
        {
          "internalType": "uint256",
          "name": "index",
          "type": "uint256"
        }
      ],
      "name": "getCandidateNames",
      "outputs": [
        {
          "internalType": "string",
          "name": "",
          "type": "string"
        }
      ],
      "stateMutability": "view",
      "type": "function"
    },
    {
      "inputs": [
        {
          "internalType": "uint256",
          "name": "index",
          "type": "uint256"
        }
      ],
      "name": "getCandidateDescription",
      "outputs": [
        {
          "internalType": "string",
          "name": "",
          "type": "string"
        }
      ],
      "stateMutability": "view",
      "type": "function"
    },
    {
      "inputs": [
        {
          "internalType": "uint256",
          "name": "index",
          "type": "uint256"
        }
      ],
      "name": "getWinnerNames",
      "outputs": [
        {
          "internalType": "string",
          "name": "",
          "type": "string"
        }
      ],
      "stateMutability": "view",
      "type": "function"
    }
  ],
  "bytecode": "0x608060405234801561001057600080fd5b5033600560006101000a81548173ffffffffffffffffffffffffffffffffffffffff021916908373ffffffffffffffffffffffffffffffffffffffff16021790555061295d806100616000396000f3fe608060405234801561001057600080fd5b50600436106101da5760003560e01c8063a3ec138d11610104578063c65993b1116100a2578063dafee1f911610071578063dafee1f9146105a1578063efdfe6f8146105d1578063fd4a77f114610601578063fe3a4bd21461061d576101da565b8063c65993b1146104f3578063cbff75cb14610523578063d594cbeb14610553578063d6b1f5d914610571576101da565b8063b49b89cc116100de578063b49b89cc14610457578063ba72e72514610487578063bc8711fd146104a5578063c3c5a547146104c3576101da565b8063a3ec138d146103fb578063a48bdb7c1461042f578063a6193aba14610439576101da565b8063541629481161017c5780637eb507d71161014b5780637eb507d71461036157806383cb2c2d1461039157806398392303146103ad5780639fa12468146103dd576101da565b806354162948146102b25780635aa54a8b146102ce5780635e6cb241146103015780636fcdc50814610331576101da565b8063329f5c41116101b8578063329f5c411461022557806334716df6146102435780633477ee2e1461026157806335e038c714610294576101da565b8063054a191f146101df5780631aa3a008146101fd5780632e4176cf14610207575b600080fd5b6101e761063b565b6040516101f49190611c81565b60405180910390f35b610205610641565b005b61020f6108a8565b60405161021c9190611cdd565b60405180910390f35b61022d6108ce565b60405161023a9190611c81565b60405180910390f35b61024b6108d4565b6040516102589190611c81565b60405180910390f35b61027b60048036038101906102769190611d38565b6108da565b60405161028b9493929190611df5565b60405180910390f35b61029c610a2a565b6040516102a99190611c81565b60405180910390f35b6102cc60048036038101906102c79190612063565b610a37565b005b6102e860048036038101906102e39190611d38565b610cee565b6040516102f89493929190611df5565b60405180910390f35b61031b60048036038101906103169190611d38565b610e3e565b60405161032891906121e3565b60405180910390f35b61034b60048036038101906103469190611d38565b610eea565b6040516103589190612220565b60405180910390f35b61037b60048036038101906103769190611d38565b610f27565b60405161038891906121e3565b60405180910390f35b6103ab60048036038101906103a69190611d38565b610fde565b005b6103c760048036038101906103c29190611d38565b611031565b6040516103d49190611c81565b60405180910390f35b6103e5611060565b6040516103f29190611c81565b60405180910390f35b61041560048036038101906104109190612267565b611066565b604051610426959493929190612294565b60405180910390f35b6104376110d6565b005b610441611170565b60405161044e9190611c81565b60405180910390f35b610471600480360381019061046c9190611d38565b611176565b60405161047e9190612220565b60405180910390f35b61048f6111aa565b60405161049c9190611c81565b60405180910390f35b6104ad6111b7565b6040516104ba9190611c81565b60405180910390f35b6104dd60048036038101906104d89190612267565b6111c4565b6040516104ea9190612220565b60405180910390f35b61050d60048036038101906105089190611d38565b61121d565b60405161051a91906121e3565b60405180910390f35b61053d60048036038101906105389190612267565b6112c9565b60405161054a9190612220565b60405180910390f35b61055b611322565b6040516105689190611c81565b60405180910390f35b61058b60048036038101906105869190611d38565b61132f565b60405161059891906121e3565b60405180910390f35b6105bb60048036038101906105b69190611d38565b6113db565b6040516105c891906121e3565b60405180910390f35b6105eb60048036038101906105e69190611d38565b6114a3565b6040516105f891906121e3565b60405180910390f35b61061b60048036038101906106169190611d38565b61155a565b005b6106256117e1565b6040516106329190611c81565b60405180910390f35b600c5481565b600560009054906101000a900473ffffffffffffffffffffffffffffffffffffffff1673ffffffffffffffffffffffffffffffffffffffff163373ffffffffffffffffffffffffffffffffffffffff16036106d1576040517f08c379a00000000000000000000000000000000000000000000000000000000081526004016106c890612333565b60405180910390fd5b600033905060001515601260008373ffffffffffffffffffffffffffffffffffffffff1673ffffffffffffffffffffffffffffffffffffffff16815260200190815260200160002060000160009054906101000a900460ff1615151461076c576040517f08c379a00000000000000000000000000000000000000000000000000000000081526004016107639061239f565b60405180910390fd5b60001515601260008373ffffffffffffffffffffffffffffffffffffffff1673ffffffffffffffffffffffffffffffffffffffff16815260200190815260200160002060000160019054906101000a900460ff16151514610802576040517f08c379a00000000000000000000000000000000000000000000000000000000081526004016107f99061240b565b60405180910390fd5b6001601260008373ffffffffffffffffffffffffffffffffffffffff1673ffffffffffffffffffffffffffffffffffffffff168152602001908152602001600020600201819055506001601260008373ffffffffffffffffffffffffffffffffffffffff1673ffffffffffffffffffffffffffffffffffffffff16815260200190815260200160002060000160016101000a81548160ff02191690831515021790555050565b600560009054906101000a900473ffffffffffffffffffffffffffffffffffffffff1681565b600d5481565b600b5481565b600681815481106108ea57600080fd5b90600052602060002090600402016000915090508060000154908060010154908060020180546109199061245a565b80601f01602080910402602001604051908101604052809291908181526020018280546109459061245a565b80156109925780601f1061096757610100808354040283529160200191610992565b820191906000526020600020905b81548152906001019060200180831161097557829003601f168201915b5050505050908060030180546109a79061245a565b80601f01602080910402602001604051908101604052809291908181526020018280546109d39061245a565b8015610a205780601f106109f557610100808354040283529160200191610a20565b820191906000526020600020905b815481529060010190602001808311610a0357829003601f168201915b5050505050905084565b6000601080549050905090565b600560009054906101000a900473ffffffffffffffffffffffffffffffffffffffff1673ffffffffffffffffffffffffffffffffffffffff163373ffffffffffffffffffffffffffffffffffffffff1614610ac7576040517f08c379a0000000000000000000000000000000000000000000000000000000008152600401610abe906124d7565b60405180910390fd5b856008819055508460098190555083600a8190555082600b8190555081600c8190555080600d8190555060005b600854811015610bd45760066040518060800160405280838152602001600081526020018b8481518110610b2b57610b2a6124f7565b5b602002602001015181526020018a8481518110610b4b57610b4a6124f7565b5b6020026020010151815250908060018154018082558091505060019003906000526020600020906004020160009091909190915060008201518160000155602082015181600101556040820151816002019081610ba891906126d2565b506060820151816003019081610bbe91906126d2565b5050508080610bcc906127d3565b915050610af4565b508a600e9080519060200190610beb929190611ae8565b5089600f9080519060200190610c02929190611ae8565b508860109080519060200190610c19929190611ae8565b50600e8054905067ffffffffffffffff811115610c3957610c38611e4d565b5b604051908082528060200260200182016040528015610c675781602001602082028036833780820191505090505b5060119080519060200190610c7d929190611b41565b5060005b600e80549050811015610ce057600060118281548110610ca457610ca36124f7565b5b90600052602060002090602091828204019190066101000a81548160ff0219169083151502179055508080610cd8906127d3565b915050610c81565b505050505050505050505050565b60078181548110610cfe57600080fd5b9060005260206000209060040201600091509050806000015490806001015490806002018054610d2d9061245a565b80601f0160208091040260200160405190810160405280929190818152602001828054610d599061245a565b8015610da65780601f10610d7b57610100808354040283529160200191610da6565b820191906000526020600020905b815481529060010190602001808311610d8957829003601f168201915b505050505090806003018054610dbb9061245a565b80601f0160208091040260200160405190810160405280929190818152602001828054610de79061245a565b8015610e345780601f10610e0957610100808354040283529160200191610e34565b820191906000526020600020905b815481529060010190602001808311610e1757829003601f168201915b5050505050905084565b600e8181548110610e4e57600080fd5b906000526020600020016000915090508054610e699061245a565b80601f0160208091040260200160405190810160405280929190818152602001828054610e959061245a565b8015610ee25780601f10610eb757610100808354040283529160200191610ee2565b820191906000526020600020905b815481529060010190602001808311610ec557829003601f168201915b505050505081565b600060118281548110610f0057610eff6124f7565b5b90600052602060002090602091828204019190069054906101000a900460ff169050919050565b606060068281548110610f3d57610f3c6124f7565b5b90600052602060002090600402016002018054610f599061245a565b80601f0160208091040260200160405190810160405280929190818152602001828054610f859061245a565b8015610fd25780601f10610fa757610100808354040283529160200191610fd2565b820191906000526020600020905b815481529060010190602001808311610fb557829003601f168201915b50505050509050919050565b6011805490508110610fef57600080fd5b600160118281548110611005576110046124f7565b5b90600052602060002090602091828204019190066101000a81548160ff02191690831515021790555050565b600060068281548110611047576110466124f7565b5b9060005260206000209060040201600101549050919050565b600a5481565b60126020528060005260406000206000915090508060000160009054906101000a900460ff16908060000160019054906101000a900460ff16908060000160029054906101000a900473ffffffffffffffffffffffffffffffffffffffff16908060010154908060020154905085565b600560009054906101000a900473ffffffffffffffffffffffffffffffffffffffff1673ffffffffffffffffffffffffffffffffffffffff163373ffffffffffffffffffffffffffffffffffffffff1603611166576040517f08c379a000000000000000000000000000000000000000000000000000000000815260040161115d90612867565b60405180910390fd5b61116e6117e7565b565b60095481565b6011818154811061118657600080fd5b9060005260206000209060209182820401919006915054906101000a900460ff1681565b6000600e80549050905090565b6000600780549050905090565b6000601260008373ffffffffffffffffffffffffffffffffffffffff1673ffffffffffffffffffffffffffffffffffffffff16815260200190815260200160002060000160019054906101000a900460ff169050919050565b6010818154811061122d57600080fd5b9060005260206000200160009150905080546112489061245a565b80601f01602080910402602001604051908101604052809291908181526020018280546112749061245a565b80156112c15780601f10611296576101008083540402835291602001916112c1565b820191906000526020600020905b8154815290600101906020018083116112a457829003601f168201915b505050505081565b6000601260008373ffffffffffffffffffffffffffffffffffffffff1673ffffffffffffffffffffffffffffffffffffffff16815260200190815260200160002060000160009054906101000a900460ff169050919050565b6000600f80549050905090565b600f818154811061133f57600080fd5b90600052602060002001600091509050805461135a9061245a565b80601f01602080910402602001604051908101604052809291908181526020018280546113869061245a565b80156113d35780601f106113a8576101008083540402835291602001916113d3565b820191906000526020600020905b8154815290600101906020018083116113b657829003601f168201915b505050505081565b606060078054905082106113ee57600080fd5b60078281548110611402576114016124f7565b5b9060005260206000209060040201600201805461141e9061245a565b80601f016020809104026020016040519081016040528092919081815260200182805461144a9061245a565b80156114975780601f1061146c57610100808354040283529160200191611497565b820191906000526020600020905b81548152906001019060200180831161147a57829003601f168201915b50505050509050919050565b6060600682815481106114b9576114b86124f7565b5b906000526020600020906004020160030180546114d59061245a565b80601f01602080910402602001604051908101604052809291908181526020018280546115019061245a565b801561154e5780601f106115235761010080835404028352916020019161154e565b820191906000526020600020905b81548152906001019060200180831161153157829003601f168201915b50505050509050919050565b600560009054906101000a900473ffffffffffffffffffffffffffffffffffffffff1673ffffffffffffffffffffffffffffffffffffffff163373ffffffffffffffffffffffffffffffffffffffff16036115ea576040517f08c379a00000000000000000000000000000000000000000000000000000000081526004016115e190612333565b60405180910390fd5b6000601260003373ffffffffffffffffffffffffffffffffffffffff1673ffffffffffffffffffffffffffffffffffffffff168152602001908152602001600020600201540361166f576040517f08c379a0000000000000000000000000000000000000000000000000000000008152600401611666906128d3565b60405180910390fd5b601260003373ffffffffffffffffffffffffffffffffffffffff1673ffffffffffffffffffffffffffffffffffffffff16815260200190815260200160002060000160009054906101000a900460ff16156116ff576040517f08c379a00000000000000000000000000000000000000000000000000000000081526004016116f69061239f565b60405180910390fd5b80601260003373ffffffffffffffffffffffffffffffffffffffff1673ffffffffffffffffffffffffffffffffffffffff168152602001908152602001600020600101819055506001601260003373ffffffffffffffffffffffffffffffffffffffff1673ffffffffffffffffffffffffffffffffffffffff16815260200190815260200160002060000160006101000a81548160ff0219169083151502179055506001600682815481106117b7576117b66124f7565b5b906000526020600020906004020160010160008282546117d791906128f3565b9250508190555050565b60085481565b6000805b600680549050811015611861576006818154811061180c5761180b6124f7565b5b90600052602060002090600402016001015482101561184e5760068181548110611839576118386124f7565b5b90600052602060002090600402016001015491505b8080611859906127d3565b9150506117eb565b5060005b600680549050811015611ae45760068181548110611886576118856124f7565b5b9060005260206000209060040201600101548203611ad15760076040518060800160405280600684815481106118bf576118be6124f7565b5b9060005260206000209060040201600001548152602001600684815481106118ea576118e96124f7565b5b906000526020600020906004020160010154815260200160068481548110611915576119146124f7565b5b906000526020600020906004020160020180546119319061245a565b80601f016020809104026020016040519081016040528092919081815260200182805461195d9061245a565b80156119aa5780601f1061197f576101008083540402835291602001916119aa565b820191906000526020600020905b81548152906001019060200180831161198d57829003601f168201915b50505050508152602001600684815481106119c8576119c76124f7565b5b906000526020600020906004020160030180546119e49061245a565b80601f0160208091040260200160405190810160405280929190818152602001828054611a109061245a565b8015611a5d5780601f10611a3257610100808354040283529160200191611a5d565b820191906000526020600020905b815481529060010190602001808311611a4057829003601f168201915b5050505050815250908060018154018082558091505060019003906000526020600020906004020160009091909190915060008201518160000155602082015181600101556040820151816002019081611ab791906126d2565b506060820151816003019081611acd91906126d2565b5050505b8080611adc906127d3565b915050611865565b5050565b828054828255906000526020600020908101928215611b30579160200282015b82811115611b2f578251829081611b1f91906126d2565b5091602001919060010190611b08565b5b509050611b3d9190611be7565b5090565b82805482825590600052602060002090601f01602090048101928215611bd65791602002820160005b83821115611ba757835183826101000a81548160ff0219169083151502179055509260200192600101602081600001049283019260010302611b6a565b8015611bd45782816101000a81549060ff0219169055600101602081600001049283019260010302611ba7565b505b509050611be39190611c0b565b5090565b5b80821115611c075760008181611bfe9190611c28565b50600101611be8565b5090565b5b80821115611c24576000816000905550600101611c0c565b5090565b508054611c349061245a565b6000825580601f10611c465750611c65565b601f016020900490600052602060002090810190611c649190611c0b565b5b50565b6000819050919050565b611c7b81611c68565b82525050565b6000602082019050611c966000830184611c72565b92915050565b600073ffffffffffffffffffffffffffffffffffffffff82169050919050565b6000611cc782611c9c565b9050919050565b611cd781611cbc565b82525050565b6000602082019050611cf26000830184611cce565b92915050565b6000604051905090565b600080fd5b600080fd5b611d1581611c68565b8114611d2057600080fd5b50565b600081359050611d3281611d0c565b92915050565b600060208284031215611d4e57611d4d611d02565b5b6000611d5c84828501611d23565b91505092915050565b600081519050919050565b600082825260208201905092915050565b60005b83811015611d9f578082015181840152602081019050611d84565b60008484015250505050565b6000601f19601f8301169050919050565b6000611dc782611d65565b611dd18185611d70565b9350611de1818560208601611d81565b611dea81611dab565b840191505092915050565b6000608082019050611e0a6000830187611c72565b611e176020830186611c72565b8181036040830152611e298185611dbc565b90508181036060830152611e3d8184611dbc565b905095945050505050565b600080fd5b7f4e487b7100000000000000000000000000000000000000000000000000000000600052604160045260246000fd5b611e8582611dab565b810181811067ffffffffffffffff82111715611ea457611ea3611e4d565b5b80604052505050565b6000611eb7611cf8565b9050611ec38282611e7c565b919050565b600067ffffffffffffffff821115611ee357611ee2611e4d565b5b602082029050602081019050919050565b600080fd5b600080fd5b600067ffffffffffffffff821115611f1957611f18611e4d565b5b611f2282611dab565b9050602081019050919050565b82818337600083830152505050565b6000611f51611f4c84611efe565b611ead565b905082815260208101848484011115611f6d57611f6c611ef9565b5b611f78848285611f2f565b509392505050565b600082601f830112611f9557611f94611e48565b5b8135611fa5848260208601611f3e565b91505092915050565b6000611fc1611fbc84611ec8565b611ead565b90508083825260208201905060208402830185811115611fe457611fe3611ef4565b5b835b8181101561202b57803567ffffffffffffffff81111561200957612008611e48565b5b8086016120168982611f80565b85526020850194505050602081019050611fe6565b5050509392505050565b600082601f83011261204a57612049611e48565b5b813561205a848260208601611fae565b91505092915050565b60008060008060008060008060008060006101608c8e03121561208957612088611d02565b5b60008c013567ffffffffffffffff8111156120a7576120a6611d07565b5b6120b38e828f01612035565b9b505060208c013567ffffffffffffffff8111156120d4576120d3611d07565b5b6120e08e828f01612035565b9a505060408c013567ffffffffffffffff81111561210157612100611d07565b5b61210d8e828f01612035565b99505060608c013567ffffffffffffffff81111561212e5761212d611d07565b5b61213a8e828f01612035565b98505060808c013567ffffffffffffffff81111561215b5761215a611d07565b5b6121678e828f01612035565b97505060a06121788e828f01611d23565b96505060c06121898e828f01611d23565b95505060e061219a8e828f01611d23565b9450506101006121ac8e828f01611d23565b9350506101206121be8e828f01611d23565b9250506101406121d08e828f01611d23565b9150509295989b509295989b9093969950565b600060208201905081810360008301526121fd8184611dbc565b905092915050565b60008115159050919050565b61221a81612205565b82525050565b60006020820190506122356000830184612211565b92915050565b61224481611cbc565b811461224f57600080fd5b50565b6000813590506122618161223b565b92915050565b60006020828403121561227d5761227c611d02565b5b600061228b84828501612252565b91505092915050565b600060a0820190506122a96000830188612211565b6122b66020830187612211565b6122c36040830186611cce565b6122d06060830185611c72565b6122dd6080830184611c72565b9695505050505050565b7f746865207573657220697320746865206368616972706572736f6e0000000000600082015250565b600061231d601b83611d70565b9150612328826122e7565b602082019050919050565b6000602082019050818103600083015261234c81612310565b9050919050565b7f766f74657220616c726561647920766f74656400000000000000000000000000600082015250565b6000612389601383611d70565b915061239482612353565b602082019050919050565b600060208201905081810360008301526123b88161237c565b9050919050565b7f616c726561647920726567697374657265640000000000000000000000000000600082015250565b60006123f5601283611d70565b9150612400826123bf565b602082019050919050565b60006020820190508181036000830152612424816123e8565b9050919050565b7f4e487b7100000000000000000000000000000000000000000000000000000000600052602260045260246000fd5b6000600282049050600182168061247257607f821691505b6020821081036124855761248461242b565b5b50919050565b7f7468652075736572206973206e6f74206368616972706572736f6e0000000000600082015250565b60006124c1601b83611d70565b91506124cc8261248b565b602082019050919050565b600060208201905081810360008301526124f0816124b4565b9050919050565b7f4e487b7100000000000000000000000000000000000000000000000000000000600052603260045260246000fd5b60008190508160005260206000209050919050565b60006020601f8301049050919050565b600082821b905092915050565b6000600883026125887fffffffffffffffffffffffffffffffffffffffffffffffffffffffffffffffff8261254b565b612592868361254b565b95508019841693508086168417925050509392505050565b6000819050919050565b60006125cf6125ca6125c584611c68565b6125aa565b611c68565b9050919050565b6000819050919050565b6125e9836125b4565b6125fd6125f5826125d6565b848454612558565b825550505050565b600090565b612612612605565b61261d8184846125e0565b505050565b5b818110156126415761263660008261260a565b600181019050612623565b5050565b601f8211156126865761265781612526565b6126608461253b565b8101602085101561266f578190505b61268361267b8561253b565b830182612622565b50505b505050565b600082821c905092915050565b60006126a96000198460080261268b565b1980831691505092915050565b60006126c28383612698565b9150826002028217905092915050565b6126db82611d65565b67ffffffffffffffff8111156126f4576126f3611e4d565b5b6126fe825461245a565b612709828285612645565b600060209050601f83116001811461273c576000841561272a578287015190505b61273485826126b6565b86555061279c565b601f19841661274a86612526565b60005b828110156127725784890151825560018201915060208501945060208101905061274d565b8683101561278f578489015161278b601f891682612698565b8355505b6001600288020188555050505b505050505050565b7f4e487b7100000000000000000000000000000000000000000000000000000000600052601160045260246000fd5b60006127de82611c68565b91507fffffffffffffffffffffffffffffffffffffffffffffffffffffffffffffffff82036128105761280f6127a4565b5b600182019050919050565b7f6368616972706572736f6e000000000000000000000000000000000000000000600082015250565b6000612851600b83611d70565b915061285c8261281b565b602082019050919050565b6000602082019050818103600083015261288081612844565b9050919050565b7f766f746572206e6f742072656769737465726564000000000000000000000000600082015250565b60006128bd601483611d70565b91506128c882612887565b602082019050919050565b600060208201905081810360008301526128ec816128b0565b9050919050565b60006128fe82611c68565b915061290983611c68565b9250828201905080821115612921576129206127a4565b5b9291505056fea26469706673582212204d6e431fb0b47b150a675fafae2baf1c7b995ad1afabd48ebceb47cf5d1e415264736f6c63430008110033",
  "immutableReferences": {},
  "source": "pragma solidity  ^0.8.17;\n// SPDX-License-Identifier: GPL-3.0\n\ncontract Voting{\n    // state variables\n     \n    struct Voters{\n        bool voted;\n        bool registered;\n        address delegate;\n        uint vote;\n        uint weight;\n        \n    }\n     struct Candidates{\n        uint candidateNo;\n        \n        uint no_of_votes;\n        string candidateName;\n        \n        string candidatedescription;\n    }\n    uint registerFrom;\n    uint registerTo;\n    uint votingFrom;\n    uint votingTo;\n    uint resultsFrom;\n    address public chairperson;\n        Candidates[]  public candidates;\n    Candidates[] public tiebreakers;\n     uint public candidatescount;\n     uint public StartRegisterTime;\n     uint public StopRegisterTime;\n     uint public StartVotingTime;\n     uint public StopVotingTime;\n     uint public StartResultTime;\n     string[] public RegNo;\n     string[]  public Phone;\n     string[] public Email;\n     bool[] public RegisterDone;\n     mapping(address=>Voters) public voters;\n     constructor(){\n        chairperson = msg.sender;\n         \n     }\n     function set(string[] memory regNo,string[\n] memory phone,string[] memory email,string[] memory candidateNames,string[] memory candidateDesc,uint NoOfCandidates,uint startregistertime,uint stopregistertime,\n     uint startvotingtime,uint stopvotingtime,uint startresultstime) public {\n        require(msg.sender==chairperson,\"the user is not chairperson\");\n        candidatescount = NoOfCandidates;\n         StartRegisterTime = startregistertime;\n         StopRegisterTime =stopregistertime;\n         StartVotingTime = startvotingtime;\n         StopVotingTime = stopvotingtime;\n         StartResultTime = startresultstime;\n\n        for(uint i=0;i<candidatescount;i++)\n        {\n            candidates.push(\n                Candidates({\n                    candidateNo:i,\n                    no_of_votes:0,\n                    candidateName:candidateNames[i],\n                    \n                    candidatedescription:candidateDesc[i]\n\n\n\n                })\n            );\n        }\n        RegNo = regNo;\n        Phone = phone;\n        Email = email;\n        RegisterDone = new bool[](RegNo.length);\n        for(uint i=0;i<RegNo.length;i++)\n        {\n            RegisterDone[i] = false;\n        }\n       \n\n     }\n     function RegisterRegNo(uint index) public {\n        require(index<RegisterDone.length);\n        RegisterDone[index] = true;\n     }\n     function getIsRegNoRegistered(uint index) public view returns(bool){\n        return RegisterDone[index];\n     }\n     function getLengthRegNo() public view returns(uint)\n     {\n        return RegNo.length;\n     }\n     function getLengthPhone() public view returns(uint)\n     {\n        return Phone.length;\n     }\n     function getLengthEmail() public view returns(uint)\n     {\n        return Email.length;\n     }\n     function isRegistered(address addr) public view returns(bool)\n     {\n        return(voters[addr].registered);\n     }\n     function isVoted(address addr) public view returns(bool)\n     {\n        return(voters[addr].voted);\n     }\n     function register() public{\n        require(msg.sender!=chairperson,\"the user is the chairperson\");\n        address voter = msg.sender;\n          require(voters[voter].voted == false,\"voter already voted\");\n        require(voters[voter].registered==false,\"already registered\");\n        voters[voter].weight = 1;\n        voters[voter].registered = true;\n     }\n     function voting(uint vo) public{\n         require(msg.sender!=chairperson,\"the user is the chairperson\");\n             require(voters[msg.sender].weight !=0,\"voter not registered\");\n            require(!voters[msg.sender].voted,\"voter already voted\");\n              voters[msg.sender].vote = vo;\n                voters[msg.sender].voted = true;\n                candidates[vo].no_of_votes += 1;\n\n     }\n     function results() public{\n          require(msg.sender!=chairperson,\"chairperson\");\n           tiecalculate();\n     }\n     function getNoOfVotes(uint num) public view returns(uint){\n        return candidates[num].no_of_votes;\n     }\n     function getWinnersLength() public view returns(uint)\n     {\n        return tiebreakers.length;\n     }\n     function getCandidateNames(uint index) public view returns(string memory){\n         return candidates[index].candidateName;\n     }\n      function getCandidateDescription(uint index) public view returns(string memory){\n         return candidates[index].candidatedescription;\n     }\n     function getWinnerNames(uint index) public view returns(string memory)\n     {  require(index<tiebreakers.length);\n        return tiebreakers[index].candidateName;\n     }\n     function tiecalculate() private{\n          uint winningvotecounts = 0;\n      \n        for(uint i=0;i<candidates.length;i++)\n        {\n                if(winningvotecounts<candidates[i].no_of_votes)\n                {\n                    winningvotecounts = candidates[i].no_of_votes;\n                   \n                }\n               \n        }\n       \n       for(uint i=0;i<candidates.length;i++)\n        {\n            if(winningvotecounts == candidates[i].no_of_votes)\n            {\n                tiebreakers.push(Candidates({\n                    candidateNo: candidates[i].candidateNo,\n                    no_of_votes: candidates[i].no_of_votes,\n                      candidateName:candidates[i].candidateName,\n                   \n                    candidatedescription:candidates[i].candidatedescription\n\n                }));\n            }\n        }\n     }\n}",
  "sourcePath": "/home/yatin/Documents/Fiducia/contracts/voting.sol",
  "compiler": {
    "name": "solc",
    "version": "0.8.17+commit.8df45f5f.Emscripten.clang"
  },
  "schemaVersion": "3.4.15",
  "updatedAt": "2024-01-22T08:53:11.199Z",
  "devdoc": {
    "kind": "dev",
    "methods": {},
    "version": 1
  },
  "userdoc": {
    "kind": "user",
    "methods": {},
    "version": 1
  }
}